:20000000003F0020C16E000001CA011001CA011001CA011001CA011001CA011001CA01102A
:1C00200001CA011001CA011001CA011001CA011001CA011001CA01103FCA011082
:20003C00042998B54BD1264C04F1240008F0ECFE40B994F8A300400838BFE06804D3D4F84F
:20005C00880000E0C068E06041681E4A09781160416812680978914207D087692FB16FF034
:20007C00FF0100224FF00073B847022007F002FE112004F023FA0120E071E168087C10B136
:20009C006079012803D00E2004F018FAE16849680D488F680FB9CF681FB10021C1610B4F89
:2000BC0007600B4A40F2FF7111600027876109494161094808F09CFD192000F00FF898BDEB
:2000DC0048090020D02108400010044051000706000004600200004055380000DFF800F0AE
:0400FC00DDB2011060
:200100003C000000000000000000000034010000000000000000000001000000000000006D
:1C01200000000000000000000000000001000000000000000800000000000000BA
:20013C00340000000000000000000000680100000000000000000000010000000000000005
:14015C00010000000000000000000000080000000000000086
:2001700030000000000000000000000098010000040000000000000001000000FFFFFFFFA5
:10019000FF00000001000000080000000000000057
:2001A0002C0000000000000000000000C4010000040000000000000001000000FFFFFFFF4D
:0C01C000FFFFFFFF08000000000000002F
:2001CC0034050000E401000099A1011095A70110A5C2011009B2011045B80110000000000B
:0801EC00000000002F000000DC
:2001F400280000000000000000000000140200000000000000000000FFFFFFFF00000000B1
:080214000800000000000000DA
:20021C00300500003002000069C201106DC101101FC2011095BA011000000000000000008E
:04023C002D00000091
:20024000300500005402000075C20110A9B601109DBF011049B601100000000000000000DE
:040260002E0000006C
:200264002400000000000000000000008002000000000000000000000000000008000000CC
:040284000000000076
:20028800240000000000000000000000A40200000000000000000000000000000800000084
:0402A8000000000052
:2002AC00240000000000000000000000C8020000000000000100000000000000080000003B
:0402CC00000000002E
:2002D00000000000A413002004000000000000000000000020000000700100003000000072
:2002F0001C020000AC1300200400000000000000000000000C000000300400001800000095
:2003100040020000B413002004000000000000000000000024000000480400001800000018
:2003300000000000BC13002004000000000000000000000010000000A00100002C000000DD
:20035000CC010000C41300200400000000000000000000002000000064020000240000001B
:20037000FFFFFFFFCC13002004000000000000000000000028000000880200002400000098
:20039000FFFFFFFFD4130020040000000000000000000000580000003C010000340000007D
:2003B000FFFFFFFFDC13002004000000000000000000000010000000600400001800000092
:2003D000FFFFFFFFE41300200400000000000000000000001C000000AC0200002400000008
:2003F000FFFFFFFFEC13002004000000000000000000000038000000F40100002800000079
:20041000FFFFFFFFF413002004000000000000000000000054000000000100003C00000014
:1804300018000000000000000000000040040000080000000000000050
:1804480018000000000000000000000058040000080000000000000020
:18046000180000000000000000000000700400000800000000000000F0
:08047800010000006C96000079
:0404800006F0FEB8CC
:040484000100000073
:0404880000000E0062
:04048C0000000F005D
:040490003200000036
:040494000100000063
:04049800E812002046
:04049C00000200005A
:0404A0000000000058
:0404A40001CA011078
:0404A8000000000050
:0404AC00000000004C
:0404B0000800000040
:0404B4000000230021
:0404B800D01100203F
:0404BC00010000003B
:0404C0000013002005
:0404C400080000002C
:0404C8000000000030
:0404CC00000000002C
:0404D0000000000028
:0404D4000000000024
:0404D8000000000020
:0404DC00010000001B
:0404E00038120020AE
:0404E400060000000E
:0404E800010000000F
:0404EC00F4100020E8
:0404F0000000000008
:0404F4000000000004
:0404F80000020000FE
:0404FC0000000000FC
:02050000704742
:020502002900CE
:020504000100F4
:020506002500CE
:020508002D00C4
:02050A002E00C1
:02050C002F00BE
:02050E000100EA
:0105100001E9
:08051400030000003096000016
:08051C000000000000000000D7
:0405240000000100D2
:0405280000000300CC
:04052C0087C401106F
:04053000380500008A
:040534003805000086
:0405380000000000BF
:04053C00900000002B
:040540009000000027
:0405440000000000B3
:04054800001300207C
:04054C005F8A0000C2
:040550002000000087
:040554009895000076
:04055800E894000023
:04055C000DC30110BA
:040560006F800000A8
:04056400B38600005A
:0405680099C801101D
:04056C009BC8011017
:040570000000000087
:04057400A09600004D
:040578008893000064
:04057C00A093000048
:040580007093000074
:0205840008006D
:0205860009006A
:02058800010070
:02058A0000006F
:01058C00016D
:040590000000000067
:040594000000000063
:04059800000000005F
:04059C00000000005B
:0405A0003D8E00008C
:0405A4002D750000B1
:0405A800418300008B
:0405AC00B179000021
:0405B000DF7A0000EE
:0405B400517D000075
:0405B800095C0000DA
:0405BC00F18B0000BF
:0405C000C162000014
:0405C40011C8011049
:0405C80021C8011035
:0405CC000800000023
:0405D0002400000003
:0405D400180000000B
:0405D80028000000F7
:0405DC0020000000FB
:0405E0003C000000DB
:0405E4000C00000007
:0405E80034000000DB
:2005EC002DE9F04FADF1540D00F048FDC44C4FF00008ACE006A808F00FFD08F009FD06F0DD
:20060C0057FF0546079807F04DFE0146284604F077FE06F031FFE060616904EB4101A1F834
:20062C007C002078009047460197464602964546039543460493E0693A460421C6A307F030
:20064C00B1FD4046009001970296039543460493E06905213A46C4A307F0A4FDDFF828A352
:20066C00606904F1940904F17E05AAF1070A002815DD2F460FF2FC2B37F8020B00904346E3
:20068C00019342460292414603910493E06905215B4607F087FD6069761C8642ECDB60789F
:2006AC00009047460197464602964346039342460492E0690621B0A307F074FD0121224663
:2006CC00384604F039F8B14A0120014604F034F86269A169A07857008F420DDDED1935F8B6
:2006EC00023C01EB09027F1A43FA00F508387F1E02F8015BC0B2F7D10820A070891CA161A2
:20070C004A460420162104F017F86169B1F10A0001F10101616106D1C4F818801420401EF6
:20072C0009F8018BFBD1C0480068A0F8028008F05BFB08F079FB054608F062FB2B276B2093
:20074C008AF8000028468AF8007008F06FFB0820ADF820000A27ADF822704FF0FF360996E1
:20076C0008A807F0FFF9002840F06C81404611900827ADF838700926ADF83A600EA807F0CB
:20078C00F1F9DDF840900028CDF8449040F05481BDF83C004FF0010A10284CD120799DF83A
:2007AC003E10884247D1484601884FF6FF728A423ED1408800093ED3A66A002E3BD0607951
:2007CC00B6F802B0401C60713579102007F0C4FD0836071C1BD00221152208F0FCF9A7F8B8
:2007EC0008B0BD72FE6007F0C7FDCD4A394606F097FD0546162D0AD0042D08D0A06A40888A
:20080C00414607F0FDFA284605F098F813E060790090474601974646029645460395434613
:20082C000493E06905213A46A1A307F0BBFC02E001F044FF82461198002800F0FD80BAF16D
:20084C00000F00F0F980484607F076FFF4E0606A054608F0D9FB854208BF474602D0876889
:20086C0007F052FF381C3E4600F0E6803088401E00F0DC80401E6AD00E3803D0103800F0AB
:20088C00CE80D6E0B078A77941093BD20009C0F0D080012F00F0CD8050204746ADF8280069
:2008AC00A04DADF82A7028788DF82E000AA807F059F900280CBF9DF82F00FF200127454629
:2008CC008DF8480004218DF84A70974A8DF84B5003208DF8490012A807F097F80746E06913
:2008EC00002F04BF012177A31AD0009741460191474602974246039575A3049223E0C04627
:20090C0008020020002F00F09480884A4046052106F0F2FA0028E0690BD1414671A345469B
:20092C00A171474600970195424602920397049509E04146009147460197454602954246C0
:20094C0003926CA30497042107F02CFC71E0B078F0B1801E22D06CE0436F756E7465722012
:20096C00697320256400C04654696D652069733A00C046C0256400C043616E20726573652B
:20098C0074206973202564000C500C4009020020404613A906F06CFA08F020F8022013A9D3
:2009AC0006F066FA0CA808F037FB08F031FB06F07FFD05460D9807F075FC0146284604F060
:2009CC009FFC06F059FDA4F8920020615849E0780B8802270D462A46AD1C02F1160143FAED
:2009EC0000F208387F1E01F8012BC0B2F7D108204F4FE0703888009043460193424602921E
:200A0C0041460391CDF81080E0693FA3072107F0C9FB042016212A4603F08EFE09E0706841
:200A2C0001F04CFE05E0C04684100020B07801F0D3FA304607F05CFE606A08F0E1FA00285E
:200A4C003FF405AF2089C10813D320F00400208104F1C80008F0E2F902200DF14D0106F0A2
:200A6C0007FA28B9032001210DF14D0203F064FE2089C109FFF46BAE20F040002E492081BA
:200A8C0002270F63084600688008FBD22948294F40886669207038880B2E60707FF4AAAD01
:200AAC000120606107F09AFF15B0BDE8F08FC0465273702073656E642072657472793A201A
:200ACC00256400C05363616E6E696E67204F6E005363616E6E696E67206661696C65643AC3
:200AEC00202564005363616E6E696E67204F666600C046C05363616E6E696E67204F6666A3
:200B0C00204661696C00C04643757272656E7420726561642074696D653A20256400C046D0
:200B2C00AB8B000029060020A78D0000A18D00009A020020E8000E400C500C402DE9F04FD3
:200B4C000120ADF1540DADF81A000827ADF8187006A807F007F800263546CA4C8DF84850D6
:200B6C009DF81C006070A6700898E0614FF6FF70A082384607F0F0FB5FEA00080CD001216C
:200B8C00122208F028F807F0F7FB12A90123CB4A0091414606F0E2FB9DF84800DFF83883C6
:200BAC00324601232070414604F1A80006F0ACF804F1CC0032460223414606F0A5F804F1D2
:200BCC00F00032460423414606F09EF8062031461022E07004F1480004F03AFE04F1580092
:200BEC003146102204F034FE25626672A6720720267304F148021021E072022006F050FEBB
:200C0C0004F158020320102106F04AFE042004F12002014606F044FE19E0A078B4F84050E0
:200C2C00B4F84230B4F84420B4F8461006280ED1ADF83650ADF83830ADF83A20B948ADF88E
:200C4C003C1008F0EDF801200DA904F0BFFD0A20ADF80A00ADF808704FF0FF35039502A82D
:200C6C0006F080FF002840F09F8130460C90ADF824700925ADF8265009A806F073FFDDF8F9
:200C8C002CB00028CDF830B040F08E81BDF82800102840F07D8160789DF82A10884240F07C
:200CAC0077815D4628884FF6FF71814200F068812B78A23B00F04D812E3B40F06981B046D5
:200CCC0040461390A87805280FDC05286DD0002800F00481401E00F02781401E00F0D48008
:200CEC00401E012840F2A88020E1801F26D0401E06D0801F00F01881801E00F00C8115E104
:200D0C00B64808F08DF80C984378002B40F00E81C188E1820189218340896083814807F0BD
:200D2C00C1FE002840F00281A36A002B00F0FE801B68E08A218B628B9847F7E0B5F80490EA
:200D4C000A2007F009FB5FEA00080AD00121152207F041FFA8F8089007F00EFB414607F0F1
:200D6C00A7F8B9483146062204F072FDE68226836683A879A0736B4808F052F8974808F0CB
:200D8C004FF84FF001084FF6FF706379A0824BB9A879082814BF04200520A070404607F008
:200DAC005BFDC3E00320A070C0E0687800283DD1A549281D02680A60808888800623A370F0
:200DCC006889A082E889E082288A2083688A94F83E206083E878012A607308D11F2006F0A1
:200DEC0091F94FF47A7141434E4806F00DFB95F803A0B5F80A90142007F0AEFA5FEA00087C
:200E0C0066D00121142207F0E6FE88F808A0281DC8F80C00A8F81090042288F8122007F015
:200E2C00ABFA8A4A414606F07BFA51E0687831284DD1267104201EE06878002847D1A878BA
:200E4C00618AA278032811D02079637921B9012814BF6671267105E0034303D07E4806F002
:200E6C00D3FAA278072AE5D1062004E0062A06D0207910B90320A0702AE00220FBE70720BE
:200E8C00F9E7C046280600206B7803BBEB78A078217AABB9022818D0072816D0062802D1CF
:200EAC006179012911D103280FD06B4807F0FAFD58B9012007F0D0FC07E0C046D58B000053
:200ECC00694A404605F028FC6870687870B3A7704FF001082AE0C046658800006878002875
:200EEC00F5D15E4A0220102106F0F4FC5C4A0320102106F0EFFC5D49E81C02680A608088DE
:200F0C0088805B4A01231846A179A37005F004FC0028DDD0DBE7A8884D4A102106F05CFD96
:200F2C0004E0C046F4060020012013901399606A012905D120B1416811B158468847606AF4
:200F4C00B8F1010F24D118B3016809B3A07888471EE0687913281BD12889012808D1E07BEC
:200F6C00022805D11D4807F05BFF05F019FE0FE0052006F0C7F80146184806F045FA07E017
:200F8C006888C00B04D3374A0420014606F0A2FC0C9848B1ADF810700320ADF81200CDF8D2
:200FAC0014B004A806F0DEFD208A6579217942082FD320F0010055EA0103208229D07DB951
:200FCC002C49607A8DF83E00A57A8DF83F500A6810AB1A608988998005E0C04618070020C5
:200FEC0003208DF83E00E07A257B1A4A8DF8460006218DF847500DF13E0005F07DFF616A1B
:20100C0030B1A77021B1086810B1096838468847208A810807D3184920F002002082304673
:20102C0004F0D4FB208AC108FFF411AE20F00400E57B2082681E3FF4F0AD401E7FF407AECA
:20104C0005F0AEFD03E6C046600600209D8B0000CB8D0000BF8D0000D00600207006002017
:20106C008006002048060020AF06002054060020900600205A060020660600202DE9F04FEA
:20108C0008240126ADF15C0DADF8144005A8ADF8166006F067FDDE4D9DF8180028710798BF
:2010AC0005F1480700212862384607F0A5FFD94941F28832042305F1C8006F6205F024FE3F
:2010CC00D54F07F1180007F10C0104F03BF8D349B86007F0C5FDDFF84883B8684FF4E021B1
:2010EC004246521E06F040FBB8684FF4E021424606F03AFBDFF82C83B8684FF0C051424626
:20110C00521E06F031FBB8684FF0C051424606F02BFBC549C822002307F1240005F0F4FD00
:20112C00C248002178604FF0804005F015FDE86131460DF1520232208DF852004FF480603C
:20114C0001F082F8022041F2883106F057FA032041F2883106F052FA1020014606F04EFABD
:20116C001120214606F04AFA1F20062106F046FA8DF853604FF448778DF854605021ADF86C
:20118C0032100020ADF830004FF47A73ADF834708046ADF838300DF15302ADF8368031469B
:2011AC0040F2053001F050F840F2063002210CAA01F04AF805F1AA024FF442701D2101F049
:2011CC0043F805F1300240F20730072101F03CF84FF44470314615AA01F036F840F211302B
:2011EC0002210DF1320201F02FF840F2123002210DAA01F029F840F2133002210DF1360248
:20120C0001F022F84FF4457002210EAA01F01CF8B749032006F066F80620A02106F0EEF9A4
:20122C000720A02106F0EAF92046A02106F0E6F90920A02106F0E2F9CDF82C80B1468DF83D
:20124C0057804FF481608DF8559004218DF856900BAA8DF8589006F0B7F94FF4806031462B
:20126C000DF1550206F0B0F940F2024031460DF1560206F0A9F940F2034031460DF1570252
:20128C0006F0A2F940F20640314616AA06F09CF9032006F039FB042006F036FB9548964A22
:2012AC00132105F04DFFADF82040944C04262078ADF822608000099008A806F053FC0028A9
:2012CC000CBF0A9B43468E4FBB6083B1227842B14FF6FF711B1F404623F8041F521E987025
:2012EC00FAD1884A07F12400112105F029FF02204FF0030A8DF8590041468DF85B6016228F
:20130C008DF85AA00DF13A0004F0A2FA2A464046494603F011FA48460DF15902014603F0D6
:20132C000BFA022049460DF15A0203F005FA49460DF15B02504603F0FFF9304616210DF189
:20134C003A0203F0F9F905F12C00A678786036BB05F1380094F801B094F803A0E67960629C
:20136C00182006F0F9FF071C19D00421424607F053FB584606F03CFF387287F809A0BE726C
:20138C0004F14800F86004F158033B6104F120027A6106F0F1FF5C4A394605F0C1FF0C20E2
:2013AC0006F0DAFF071C0BD04946042207F013FC05F14000B86006F0DFFF394606F078FD8D
:2013CC004846102106F0BAFA0220102106F0B6FA4E4942F22F0006F0ADFDCDF80080474633
:2013EC000197029703970497E8693BA34146424606F0D8FE06F078F8454C4C4D4548464EC0
:20140C00A5F11D03206018686660C0085DD20FE0080200200588000040110020A57300001E
:20142C000E0005800E000010AD8900003F8D00003A494CC904F15C004CC04CC94CC00EC900
:20144C0080E80E00FF23364EE16EB4F86A20C6F8AB3F3448C6F8FF9F03F0F6FCA06F8047A4
:20146C0042F60B3442F22B0046F8550C2E4946F8514C4FF480730B6046F8217C46F83D9C06
:20148C00C6F8B39FC6F8F39FD6F8F30F07F0CCFCA5F11D02116841F004011160244A116895
:2014AC0021F0F05141F03451116007F0BFFCD5F8FF0F06F0C1F907F094FC07F09BFC06F05F
:2014CC00D5F907F091FC07F09BFC484603F0C8FB17B0BDE8F08FC046424C45205065726968
:2014EC0070686572616C204F62736572766572009B8D00001C0C00200C960000280600209C
:20150C004C0D002018960000AD8D0000578D00002410002023670000C5880000C4940000F7
:20152C0055500C4000000E4000100E402D100940003009402DE9F84F8046DD480122A0F107
:20154C0030010A60D7490F68002FFCD0D74ED64AC02706F1040B1760DBF80010890804D25F
:20156C003168090C41F0F00100E07221E34AE44D4FF0000982F85412A5F1D407C0F80090DD
:20158C00D6F808A03868C0F3046007F0E5FA5246534600EB2270401C162805DA10F10A0FFB
:2015AC00B8BF6FF0090000E01520E649E64F00F01F0040F4F8500880386880083ABFE34868
:2015CC00C0F8009042F04062E149A5F13C04D00E970E80F0010000F00100086087F001001E
:2015EC0000F0010088602068C0F38367C0F38F215FEA9A4022D243F3072000280BD542427E
:20160C004846490805D17F0806BF0127391C4FF6FF71521EF5D1002810DD4FF6FF72490041
:20162C0041F001018A4207D27F0047F001070F2F92BF01210F27111C401EF0D141EA074162
:20164C00182006F05DF820682768C34CC0F3870140F2FF324B4607F0030041EA00212746F3
:20166C0088B22C210090A7F1400005F0E1FAA5F110073868C0F30D011C2006F041F8B54928
:20168C0057F8080C014000F07C400143142006F037F857F80C1C01F47C000904090C014303
:2016AC00102006F02DF857F8042CDBF80010C2F30350C2F30343490812D231680E0510EB92
:2016CC00267003D41028A8BF0F2000E04846090413EB217303D4102BA8BF0F2300E04B469A
:2016EC0043EA001302F47F4002F0FF01B8F1220F40EA034041EA000124BF02F08042114399
:20170C000C2005F0FDFFB8F1220F32BF01202868C0F30070B8F1220F4FEA400040F020005E
:20172C0084F8090126BF2868C0F3407001208B4EB8F1200F40F0100084F8090138BF494621
:20174C0006D33168C80C00F44070C1F384510143282005F0D5FFB8F1200F26BF3068C0F3AD
:20176C0001504846B8F1220F4FEA400040F0600084F80C0126BF2868C0F3C0604846B8F193
:20178C00220F4FEAC00040F0800084F8010126BF2868C0F345504846B8F1200F4FEA800009
:2017AC0040F47C40A4F89C0138BF6D490AD3306801038A15920501F47C1100F00F001143C3
:2017CC0041EA0031082005F09BFF2E464FF480002060A6F1D000816D40F20F226FF31F41B9
:2017EC008A4213D901680068C1F30367C0F3034007B17F1E072805D006280EBF0720801C29
:20180C0000F00F003D4947EA00100870CAF381477F1E02D07F1E28D023E03168880C20D2D3
:20182C004FF4804020604F48D0F802204B0AC1F3033703F0800322F08F02134347EA0302B0
:20184C00C0F80220D0F801300F0A67F30303C0F80130026801F0E70722F0E70247EA0201CF
:20186C0002E04FF0004120460160DBF80000C0F3C0070FB94020A0624FF400703E4F2064F8
:20188C0028684FF04008C0F3C14040F0300084F8C800CAF38150A8B3401E0BD0401E28D055
:2018AC00022127E09402224300600C40AC3F005040100940012006F02BFE05460420294659
:2018CC0005F08CF8042006F023FE8542FAD12648056825F07F4006F08DF938461430006861
:2018EC00036807214FF06022280E98474FF4806020600321042005F071F80AE00260084096
:20190C008C1300500420012105F068F8174806F071F9203E30681649164B47F6180500F072
:20192C003F0084F8CB0F3A460D8018681068C168022088471248114EC0F800800121316043
:20194C00BDE8F88F6E6208400000094094042A4300002043FCFCFC0040A00C40981300506B
:20196C0000803F400A600840A83F0050BD37860070B00C402C200940A0010010940460420D
:20198C0000600C402DE9F04F09AFADF13C0D08900A92388809911E46ADF81800101C08BFF9
:2019AC00002000F08481002700F101094FF0FF3A4FF0010BB8466CE1252940F063811078EC
:2019CC00521C0A922D2818BFADF8068005D15846551CADF8060010780A9530281CBF424628
:2019EC00434605D10A9908785A465B46491C0A912A28CDF80080554616D1306804930A992D
:201A0C00CDF808A0C01C4B1C20F00300001D306050F8044C0A93002C0878009418D5ADF843
:201A2C0006B06442009413E044460AE0610001EBC40140180A99A0F1300408780094491CF8
:201A4C000A91302801DB3A28F0DBCDF808A004932E282BD10A9908782A2801F101010A9124
:201A6C0011D13068CDF80880C01C20F00300001D306050F8045C002D48BF454608782B469F
:201A8C00491C0A9111E0454643460AE0690001EBC50140180A99A0F1300508782B46491C19
:201AAC000A91302801DB3A28F0DB02930AB1224604926C2804D04C2818BFADF8048005D11E
:201ACC000A990878ADF804B0491C0A910BA9CDF80C800FAB07916428059300F08B80692877
:201AEC0000F08880BDF818C0752872D078286ED06F286AD0702850D063283DD073281ED0EE
:201B0C0009980A990128A1F101010A9115D96B490C68B5F1FF3F03D0A84288BF6D1C00D8BE
:201B2C00099D029508A80AA932466B46A047C7190A99039801F1010974E040462AE0306853
:201B4C000A99C01C20F00300001D306050F8040CBCF1000F01F10109014608B955A00146E6
:201B6C00079106F04FFF0390B5F1FF3F5BD0A842C4BF281C039056E03068C01C20F00300DA
:201B8C00001D306010F8040C5D468DF82C000A990395584601F1010945E0082035680490CD
:201BAC00E81C20F00300001D306050F8041C082210230FA804F0CEF8401E07904021017058
:201BCC000A99079801F1010929E0082302E0102300E00A230A99306801F10109C01C20F042
:201BEC000300001D306050F8041CAA42BCBF2A1C049210E00A99306801F10109C01C20F06B
:201C0C000300001D306050F8041CAA42BCBF2A1C04926FF009030FA804F09CF80790059D7A
:201C2C00281A0390009C241ABDF8065000945DB906E008A8202109AA06F0FEF9009C7F1C86
:201C4C00641E0094F5D503980546401E039075B9BDF80600E8B10098401E009019D408A81C
:201C6C00202109AA06F0E8F900987F1CF4E70798411C0791017809AA08A806F0DDF90398A8
:201C8C007F1CE1E708A809AA06F0D6F97F1C09F101094A460A9812F8011C401C00290A9096
:201CAC007FF48AAE089808B14146017038460FB0BDE8F08F286E756C6C2900C078960000E1
:201CCC002DE9FE43BD4C0F460646F80B80F05081B80880F0CB806069B90F69D2A07A00282A
:201CEC004AD138094AD3002501266570B448267206F086FFB3492A4604F14C0007F083F810
:201D0C00607901281FD1A079E8B9DFF8BC82266AD4F81490D8F8000070B106F04BFEA0EB3B
:201D2C0009004346000B8619E0611868B6EBC01F28BF256208D2266204F1C8004FF00051FD
:201D4C0006F0EAFD31E0667140F60901218794F8451001F0F00141F0010184F84510658717
:201D6C0094F8441001F0F00184F84410974EE56304F13800306018E0380914D2B80BC0F049
:201D8C00148104F1280007F047F8061C08D0706830B17568F068B6F91C1000222023A84738
:201DAC0027F4005701E10020A07227F00807FCE0D8B1042006F0ACFBB8B106F0FBFDA061ED
:201DCC006169814226BF401A401E401A000BF060F06840F6C41100F58D708142F06003D3DA
:201DEC0040F2EE22824200D9F1600025D6F818C06561BCF1000F10D094F8450010F00F0F8B
:201E0C000BD1708C40F60901814206D130466FF480712A464FF00073E0476D4904F14C00FA
:201E2C002A4606F0F0FFA07950B10220ADF80000684606F02BF9A571BDF80800A4F8A00089
:201E4C00012060702079A846401C2071192084F8078006F02FFE75692DB1414630464FF0BA
:201E6C0080630A46A84727F000579EE004F13008404606F0D1FF061C71D0B06840F6030219
:201E8C002025531C02E040686D1EEDB260B15DB101888A4218BF8B42F5D1F1682CC8203152
:201EAC002CC129C881E82900B2694FF00009C6F818907068C8B1F07F42F00202002300F0D4
:201ECC000700401E09D0401E04D0801E08D14FF0805304E04FF0804301E04FF000534A4614
:201EEC007568F068B6F91C10A84707F081F80546B4F93600401C6FF31F30E086206B1F30EC
:201F0C00017801F07F010170404606F069FC284607F06AF8F068B0F99410B4F93620914237
:201F2C001DD1217801291AD090F8965095B9056885B1E1680968B1F1FF3F10D02549096842
:201F4C007030B5FBF1F107F04BF8F068703007F043F804E080F89690484604F04FF940460D
:201F6C0006F05AFF27F0020708B147F002071CE007F03EF8014604F12C0006F04DFF0646CE
:201F8C00B569084607F030F8A8080CD25EB1B069A843B061706830B12A46F068B6F91C109C
:201FAC0075680023A84727F4804727B104F1C800394606F0B1FCBDE8FE83C04648090020F0
:201FCC008D4F00008D8200004C20002000100440493D000064960000F0B5974CE569401E76
:201FEC00ADF13C0D00F0AC80401E00F0A480801E00F08D80401E76D0401E04D0401E68D059
:20200C00401E64D05FE004F1C80006F007FF002508208DF8385006F09FF9071C0CD0012121
:20202C00182206F0D8FD06F0A7F90EA90123834A0091394605F092F9102006F08DF9071CF2
:20204C0021D00121192206F0C6FD9DF83800401E388105AEFE6006F08FF9794A394605F0C3
:20206C005FF980B99DF8380000902E460196029603960496E06954A302212A4606F092F83D
:20208C000DF1160012E00AAF40F21530394601F037FD2E4600960196029603960496E069A5
:2020AC004DA302212A4606F07DF83846E56904F0ABFB032100963246019202920346039289
:2020CC00284604927CE00221002228461CE045A300E046A300200090024601920292039280
:2020EC00284604926BE0142003F028FC002200920192029203920492E06942A3022106F0ED
:20210C0051F8E0690321052206F073FD5AE004F1C80006F085FE142003F010FC0022009219
:20212C000192029203920492E06939A3022106F039F806F053FC002239A002211646B9E773
:20214C004FF441700CA901F0DBFC9DF8317000258DF815709DF832608DF818509DF83000C4
:20216C008DF817509DF835308DF816609DF834208DF8140033498DF81B309DF833708DF8E7
:20218C001A2005AE8DF8197032680A6070684860E6690CA804F038FB0095034601950121F4
:2021AC0002952A4603953046049505F0FBFF00952A460192029203920492E0691BA30221F5
:2021CC0005F0F0FF0FB0F0BD4E756D20436F6E6E733A20256400C046436F6E6E656374653A
:2021EC006400C0464572726F7200C046436F6E6E6563746564204164766572746973696E8D
:20220C006700C04654696D6564204F757400C046446973636F6E6E656374656400C046C05B
:20222C004164766572746973696E6700496E697469616C697A65640008020020C78B000020
:20224C00B98B0000870B0020F8B5034617460E46A3F20130022840F213818A4D8A4A8B49A0
:20226C00001F0F2806D9143855D0801E27D0E5381DD011E0DFE810F0C200BC00F200E30002
:20228C00B500AD000401A6009F001000100097008E00830078006B00282B80F2F180022E75
:2022AC0040F0EE803988184605F0A8F9F8BD012E40F0E680764D3878ED1D294679E0012ED1
:2022CC0040F0DE802879012800F0DA802A4638785179507181B9002800F0D28090780128D0
:2022EC0000F09F80042800F09C80062800F09980052800F09680F8BD3878002840F0C08024
:20230C009078032800F09880072800F09580052800F09280F8BD012E40F0B28038780128F4
:20232C0040F0AE8005F1F00006F0BCFB002840F0A7802C46002004F13E0103F047FA0028FF
:20234C0040F09E8004F1CC0006F06AFDF8BD022E40F0968038880A28C0F29280B0F5486FC8
:20236C0000F38E80114612E0022E40F089803888B0F5FA7F80F2848011460880F8BD022E86
:20238C007ED1388806287BDBB0F5486F78DC891C0D4631E0022E73D13888062870DBB0F593
:2023AC00486F6DDCF4E7012E6AD13878022867DA891E0D4613E0012E62D1387804285FDA4D
:2023CC000C350CE0012E5BD13878082858DA0B3505E0012E54D13878042851DA0A35287000
:2023EC00F8BD012E4CD13878042849DC093564E7022E45D1388812352946BEE7012E3FD1A6
:20240C00687901283CD02A4638781179107161B9002835D09078012803D0042818BF0528F4
:20242C002ED1012006F018FAF8BD387840BB9078022818BF052823D106F014FBF8BD05F12E
:20244C00870400211F22204603F002FA39463246204602F0F9FC2E7200200DE005F16804DB
:20246C0000211F22204603F0F3F939463246204602F0EAFCAE7101203146224604F04CF91C
:20248C00F8BDC046280600206C06002068060020280600202DE9F04F0128ADF1140D40F04C
:2024AC00F280DFF81492D9F8DC00012840F0E9800220C9F8DC0006F08BFD0290012004F0CE
:2024CC006BFC20B101210646C9F8DC10D5E006F07BFD03906E484FF00008C0F80080012091
:2024EC0006F016F8012818BFCDF8008004D1404604F016F80120009066486E4CC0F80080D9
:20250C001934D4F8FF0F112006F0B6FB00280CBF46460126102006F0AFFB08B146F0020643
:20252C000F2006F0A9FB08B146F004060B2006F0A3FB30B1584800685849006B0246088841
:20254C0090470A2006F098FB0028404618BF01204FF0805B0BF5DC7528B128685049006B67
:20256C000246088890474F480127076028688069014646F0200088474B48076006F076FB34
:20258C0000F001010191400815D2484806F0EBFA8246BAF1040FF8D0BAF1010F06D1DBF85E
:2025AC00D801406802464148032190474049086820F003000860404600F092F92868D4F8F1
:2025CC00FF1F806B8047019801280ED0BAF1010F06D1DBF8D801406802463448394690477F
:2025EC003349086840F0030008602A480760286840690146304688470B2006F03DFB28B178
:20260C0028682649C06A0246088890470A2006F033FB28B128682249C06A024608889047DB
:20262C00204807600322C9F8DC201F4BC3F800802868406B0146304688470128F8D104205B
:20264C0004F0AAFB124807601A48D4F8FF1F01688909FCD30098012802D1384603F060FF9A
:20266C0006F0F8FA082004F097FB06460398C9F8DC7006F0A5FC03F065FD029806F09CFCB0
:20268C0002E0042600E00126304605B0BDE8F08F0C40094000022243B80100100493000070
:2026AC00009300002820086080010443004003402422084014100940800E00202DE9F04190
:2026CC000446864D20780126ADF1180DB03878D0203840F0A080A078EF69401E4AD00C384B
:2026EC0040F09980E07804281FD0E879401CE871601D04F089F80090E07805EB8000406D05
:20270C0000229046019046A302920621CDF80C803846CDF8108005F045FD2069217BED69AA
:20272C0004F09AF849A3072119E0601D04F06CF8009000204BA3042101908046CDF80880BE
:20274C004246CDF80C803846CDF8108005F02AFDED692069217B04F07FF848A3052100901E
:20276C0042460192029203922846049205F01AFD206920E00020A871E871E178804600912E
:20278C0044A3CDF804804246CDF808803846CDF80C800521CDF8108005F004FDCDF80080A3
:2027AC0042460192029203920492E8693FA3042105F0F8FC606805F09BFF204605F098FFA9
:2027CC0029E06078162815D01C35217928687E2904D07F291AD1218938A301E0217A3BA381
:2027EC00009100220192029203920521049205F0D9FC0BE06088082105F002FB30B930468B
:20280C0003F09CF8283500262C6004E0217904F1080005F049FF304606B0BDE8F081C04616
:20282C004164766572746973696E6720416464723A202573204164766572746973696E67DF
:20284C0020547970653A20257300C0464164766572746973696E6720446174613A202573A6
:20286C0000C046C05363616E20526573706F6E736520416464723A20257300C05363616EC0
:20288C0020526573706F6E736520446174613A20257300C0446576696365732064697363EB
:2028AC006F76657265643A20256400C05363616E6E696E67204F666600C046C04D5455209C
:2028CC0053697A653A20246400C046C046432056696F6C617465643A2025640008020020BB
:2028EC002DE9F84FDFF8E8B10746ABF13500DFF8D4910068800880F0D68005F0B3FB064600
:20290C0077480830D0F8008000254FEA28725FEA985002F101020AD2C6F13E0016F10A0F5C
:20292C004FEAE000D8BF08208242B8BF021C624BD3F87C01C0F3046006F00EF90446186887
:20294C00C0F3044006F008F912198246162A05DA12F10A0FB8BF6FF0090200E01522574BB5
:20296C00574802F01F0141F4F8511980006810F0030F18BF0125C00828BF45F002050FB161
:20298C0045F00405494691F90700301A052804DA8879A84208BF888865D0DFF82CE10F2E60
:2029AC00A6F10F0C25DB0CEB0610A0F1F00C4FEA2C27072F88BF07273C46062C88BF062463
:2029CC005EF82400042303EB84037446E3581B1A03F0FF04E80824BFC3F307200444A8080D
:2029EC0024BFC3F307400444680828BF04EB136401E0002427465EF827E0E8080EF0FF0327
:202A0C0024BFCEF307200344A80824BFCEF307400344680828BF03EB1E63A4B2ACEB0727D5
:202A2C00BAEB020004FB07F404F1800403EB1423D8BF0120342208F0FF0742437A43B2FB50
:202A4C00F3F04FF6FF72824238BF101C802E80B2888005DA16F1800FB8BF6FF07F0600E052
:202A6C007F26CE718D71194A12681F280A604FF0000208D340F2FF11814206D24008521C2B
:202A8C008142FBD301E01F208880124F0F38000942EAC00247EA0200CBF8FB0F0026CBF8E9
:202AAC00FF6FBDE8F88F0D4F0B4E494608203760891D0870BDE8F88F3C1100506E6208406E
:202ACC0024220840502000209C130050082009403500094000E7A48030100940FDFDA400AC
:202AEC00AC3F00502DE9F0411C4615468C4208BF854282BF00230022E5E0002C08BF002DC4
:202B0C000AD100290EBF00286FF000006FF0000100F0E1F8BDE8F0815FF000085FF0000E5E
:202B2C00002C08BF8D429CBF2C1C0025070C47EA01470E0CB44208BFBD429EBF5FEA0444AF
:202B4C0044EA15445FEA0545070A47EA01670E0AB44208BFBD429EBF5FEA042444EA15645C
:202B6C005FEA0525470847EAC1774E08B44208BFBD4200F29380870847EA81778E08B442C3
:202B8C0008BFBD427CD8C70847EA4177CE08B44208BFBD4266D8070947EA01770E09B442C1
:202BAC0008BFBD4250D8470947EAC1674E09B44208BFBD423AD8870947EA81678E09B44217
:202BCC0008BFBD4224D8C70947EA4167CE09B44208BFBD420DD8E60146EA5566EF01B14251
:202BEC0008BFB84201D3C01BB14158EB08085EEB0E0EA60146EA95664FEA8517B14208BF4E
:202C0C00B84201D3C01BB14158EB08084EEB0E0E660146EAD5666F01B14208BFB84201D39B
:202C2C00C01BB14158EB08084EEB0E0E260146EA15762F01B14208BFB84201D3C01BB141AC
:202C4C0058EB08085EEB0E0EE60046EA5576EF00B14208BFB84201D3C01BB14158EB080838
:202C6C004EEB0E0EA60046EA9576AF00B14208BFB84201D3C01BB14158EB08084EEB0E0E66
:202C8C00660046EAD5766F00B14208BFB84201D3C01BB14158EB08085EEB0E0EA14208BF21
:202CAC00A84201D3401BA14158EB08085EEB0E0EA34208BFAA423EBF2D0A45EA0465240AC3
:202CCC0089D3734642461E4617460B46024631463846BDE8F08170472DE9F843814605F022
:202CEC00B3FF002100B901216B4E30680028FCD06C4D01242D1DEF6A346009B105F0AAFF68
:202D0C00DFF89881C7F3072008F1BC01086005F09BFF002100B9214630680028FCD02F68C5
:202D2C00346009B105F096FFC7F38440C8F8C00005F08AFF0146002001B9204601463068CD
:202D4C000028FCD0ED69346009B105F083FFC5F38120C8F8D000B9F5C061C8F8B81000F028
:202D6C00968098F8D80068B9C8F8D410D8F8C000C8F8C800D8F8BC70C8F8C470D8F8D060FC
:202D8C00C8F8CC60D8F8D410D8F8BC60002954BF02206FF00100454605F1C8031A6801EB23
:202DAC0041014018411000EB917002EBA0021A60D5F8C810C5F8C46000291CDD1E293DDD1E
:202DCC00D5F8CC0030B93429B4BF15391E21C5F8C81025E02A29BABFD5F8C8000B381E208C
:202DEC00C5F8C800D5F8C4003F28B4BF401C3F20C5F8C4001FE0D5F8CC00032812D011F1F4
:202E0C000B0FC6BFD5F8C8000B30201CC5F8C800D5F8C4000028CCBF401E0020C5F8C40033
:202E2C00032009E011F1150FC6BFD5F8C8001530201CC5F8C8000020C5F8CC00B5F8C4001A
:202E4C00174E30214FF47F4208230090304603F0EFFE009404214FF400321123304603F0D0
:202E6C00E7FEB5F8C80004214FF4F80212230090304603F0DDFEB5F8CC0020214FF44062E2
:202E8C000A230090304603F0D3FEBDE8F883002088F8D800BDE8F88300800C40800E0020FD
:202EAC0000A00C4000A00C402DE9F04FADF1840D209000F0B5FE03F097FE0024012804D1AD
:202ECC0005F05EFC022808BF012459490868C0F38150012805D151F80C1C0120090E88407B
:202EEC0004435448007805F095F9DFF84C81DFF84CA1C8F8000030B15246FF2107467F1E3D
:202F0C0002F8011BFBD120990968002501F0FF02FE2A1BD0DDF880C052462B46012701F038
:202F2C00FF06FF2E0BD0B04203D907FA06F6344201D0022079E001F0FF01354353545CF887
:202F4C00041F5B1C01F0FF06FE2EEAD1092001F0BDFA3B49209824220823086001A800213E
:202F6C0006F026F84FF0010901AA3E488DF81C90494606F019F8D8F800303BB33A4E002753
:202F8C004FF0040BBA4609FA07F0044218D1054204BF07F0FF0141F4C04104D0274820997B
:202FAC00C05D51F82010274801F04CFDF8B24FF0FF3105F0BBFAD8F80030C6F800A001E0C4
:202FCC00C6F800B07F1C361D9F42DCD30AA800213022082305F0E4FF1B4D1D4A287800243E
:202FEC0010210AAB12901948009405F0D5FF16A828220823214605F0CBFF686816AA164937
:20300C001C9014481D94234605F0BEFF134A52F80D0C494620F4F85040F4005042F80D0C4E
:20302C000F4BC2F8FF1F2046196021B0BDE8F08FB43F00506420002058200020AC1F002014
:20304C005C200020007FC7673C960000EC1F002055850000781F0020CD6C00000D300940CE
:20306C000800094008200020FC1E00202DE9F843674C04F1240005F0CFFE15460E46009053
:20308C0005F0B6FF05F001078146B6F1FF3F0CD1A06A20B9B4F93600401C06B202E0A06A2E
:2030AC00B0F91C60002084F8A300304604F02CFF0326002800F09B80A16ADFF84081814249
:2030CC0069D0009FB8422ED03FB100990A68904209D0096800290091F7D1832E41D048462B
:2030EC0005F082FF3DE004F1A40005F0B5F900980168AA0802D20A680260084600220260C8
:20310C000091009818B9484605F06EFF28E0C17F41F00401C177684605F062FB0146404636
:20312C0004F056FBEDE704F1A40005F095F9A8083ABF606A006800206062484605F054FFBB
:20314C000099C87F40F00400C877684605F048FB0146404604F03CFB009808B1A808EFD270
:20316C008326E07988B9207A012843D0244805F047FD022104F1C80005F0CEFB60780128E6
:20318C0038D0204805F03CFD34E004F1C800022105F0C2FB2EE0A90803D3616A00910026C8
:2031AC006662C27F0121B9401143C17705F00CFF0446002F14BF1448144804F067FF484667
:2031CC0005F012FFA80801D3009820B9204605F0F7FE83260EE0C17F41F00401C1776846A5
:2031EC0005F0FEFA0146404604F0F2FAECE7484605F0FAFE3046BDE8F883C046780900209E
:20320C00CD1C00003D0000000100020401000104480900202DE9F041654C0746E0690D461D
:20322C00ADF1180D28B94FF00040002103F094FCE061002100918846CDF80480CDF8088064
:20324C003AA3CDF80C800A46CDF8108004F0AAFF38463AA3801E04D0801E4CD0401E2BD012
:20326C000BE0E069012D14BF37A63CA645460095019502950395049546E0CDF800804546DA
:20328C000195029503950495E0694146424604F089FF009542460192029203920492E06938
:2032AC0034A3022104F07EFF01208DF815009DF815000028FBD136E0CDF8008045460195C2
:2032CC00029503950495E0694146424604F06AFF009542460192029203920492E0692BA3DF
:2032EC00022104F05FFF01208DF814009DF814000028FBD117E0CDF8008045460195029502
:20330C00039526A60495E0694146424604F04AFF009542460192029203920492E069022134
:20332C00334604F03FFF06B0BDE8F0813E3E3E535441434B20415353455254002A2A2A4525
:20334C0052524F522A2A2A003E3E20494E5445524E414C204552524F522100C03E3E204935
:20336C004E5445524E414C204657204552524F522100C0463E3E2044454641554C5420538B
:20338C0050494E4C4F434B2100C046C03E3E204943414C4C2041424F525421003E3E204F85
:2033AC005554204F46204D454D4F52592100C046080200202DE9F0438046D8F80460D8F846
:2033CC0008700C46ADF1340D05F012FE3178012903D105F009FE0020A3E04FF0010986F826
:2033EC00009005F001FE207870706078B07060687060A068B060E068F06020693061207DCE
:20340C003075607D7075A07DB075A069B061207F3077607F00257077A07F3562356310212D
:20342C0086F83C10B0772C4674627463B462B46386F82C4086F82D4086F83D40786801F0A2
:20344C0045F8404601F0DEF9404601F0EBFF78B935480068C068014638688847786800F0B0
:20346C00CBFF05F0C5FD347005F0BEFDA04657E001A821463022082305F092FDCDF81880E0
:20348C003A7B09920095294AB96806F1680001AB05F082FD01A828220823214605F078FD39
:2034AC00396907912249CDF8148006F1840001AA234605F069FD01A824220823214605F0A2
:2034CC0077FDB0788DF81C9038B906F1B800214601AA05F069FD17483061707838B906F146
:2034EC00D400214601AA05F05FFD1348F06001A821462422082305F043FD0694ADF8144095
:20350C0006F1F0000D49CDF81C800A2201AB05F033FD0B4A06F154000421434604F0DEFDE7
:20352C0040460DB0BDE8F083D001001051410000356A0000678D00005F8D0000E5510000FC
:20354C00D18A00002DE9FC415E4C574D574EDFF860815A4F94F8E410481E0B2861D8DFE844
:20356C0000F07B2C43062343062343067664042907D001220A2945F8212C14BF02200320B1
:20358C0004E02021012045F8211C024684F8E200002045F8390C0827C5F8FF7FC5F8F37F7E
:2035AC0045F8392CBDE8FC81052914BF09200620002584F8E400356070E094F8E170012083
:2035CC00383D002FC5F81B0004BF0620002102D00021F160032084F8E400032045F8010C25
:2035EC0031603068800859D294F8E400012503280DD00021404660220523009103F018FB5D
:20360C0094F8E400062814BF0A200720D1E702200090002160220523404603F009FB042006
:20362C00C7E705F0A5FCBDE8FC812249002622480E60012505600E2000F0DEFE022004F014
:20364C0009FB84F8E45084F8E360BDE8FC81002038600C2578601FE0194800680068014691
:20366C00202088472C3D41F61D560F2000214FF4C072072345F8010C4046C5F80360022516
:20368C00009503F0D5FA404600214FF4C072072303F0B8FC0120386084F8E45004F1780004
:2036AC0005F09AFCBDE8FC8139400C4038600C4000A00C402C500C4004800C4034600C4044
:2036CC00A0010010800E00202DE9F84F994692468B46064605F08CFC564C0090B4F93610AC
:2036EC00B4F934000AAF401A40F6F8710140082980F29080B4F9340004F59875401C6FF392
:20370C001F30A0860820B4F93480EB7F33F07F0304D0401E05F12005F7D1002506F17000EF
:20372C0004F09AFEC5F808B085F81EA0C5F80490A5F81C804048EE6097E80C0020210027EE
:20374C001940104005F1100383E8030004F12400EF770368002B50D1294604F039F800284B
:20376C0051D0A6F89480E87F40F08000E87786F89670607A40B1607830B10120A0726772E0
:20378C00A7712079401C2071009805F02DFCA06A00284BD1607860BBE079012846D005F0FB
:2037AC0027FC0646207A00BBA86803F063F9244A2249E3681268086040B9304605F014FC60
:2037CC0004F1C800042105F0A7F82FE00968DB6804F1A400C91AB1FBF2F105F001FC04F1B2
:2037EC00A40005F0F9FB30461EE0164901200870F9E7192005F05EF918E004F124002946DF
:20380C0003F0E6FF48B9B4F9340000F6FF706FF31F30A0866FF0010805E0A6F89480E87F40
:20382C0040F08000E877009805F0DEFB4046BDE8F88FC04648090020F1EFFF9F4C200020D4
:20384C0064960000482000202DE9F043584CE2680746880FADF1140DC0F09A8050684068D6
:20386C0008B18047E26851684B4E886808B9CD687DB13568002DFCD00022326010B180473A
:20388C00E0684168C86800B180474A48503804F0FDFB4FF00008C6F80080404846F81C0C0A
:2038AC003F4805F0ADF9424640F60A01218704F13800BD686287037B03F0F003037381468D
:2038CC00C4F83C8094F845006A8000F0F00040F0010084F8450000E01D466B6813B118885D
:2038EC008142F9D1C5F80490687B00F0F000687304F1240005F090FA80680088C91F81428D
:20390C001ED0491C81421BD03B8CCBB197F82C0097F82D30C7F8248000F0F00087F82C00C2
:20392C0003F0F00040F0010087F82D0007F12001E16399F80D007A8400F0F00089F80D0054
:20394C00184801688468C368009110226946406B019420F0784040F080500390124802937F
:20396C0001F072FA30680028FCD0C6F80080012004F0CEFD012808D0687B00F0F00040F040
:20398C0001006873094805F03BF9B86846F81C0C05B0BDE8F083C0461C10044001010E04E8
:2039AC00CD1C00004C13005018000021816500004809002051000706F8B5414C201D036893
:2039CC00B3F1FF3F08BF002303F00EF9002876D13C4E20683468070F04F0FF04802C28BF58
:2039EC00002403F001F94FF0FF3578B1401E07D0401E012802D9801E13D014E08FB112E0D0
:203A0C00381C5CD0801E0ED114340BE03846401E55D0801E53D0001F51D0401E03D11634EC
:203A2C0000E00A3465B2162D49DB27482749002501270560264E0F60264C376020680028B1
:203A4C00FCD1274A161D2449244F306820F0030001433868C0080CD2106810F0030F0AD070
:203A6C0041F003003060106800F003000328FAD101E041F001011B483160006820B11A4872
:203A8C0000681846FDF756FD184819490560194F0A686FF35B4247EA0200086016490868A3
:203AAC00C0F30130012806D10A681448104040F400320A60086020680028FCD1F8BDFEE7A9
:203ACC0018130050A0100050840460425C600C40082204430C00684204000020B03F0050A3
:203AEC000040034080012843000120438C210840482003400000390104000940FFFFFCFCCA
:203B0C002DE9F04F0C4645490A7BADF12C0D84460592887B09900D790095CA7A488B4B8A04
:203B2C004E7B91F805A091F802800492B1F846E008908A7A088B0392CD7807904A7AC88A5C
:203B4C0002920F6A06900A7A888A01928A79E146A9F54079B9F11D0F10D8DFE809F05B55DE
:203B6C0053514F4D4B494643413F3C3A380F34312E2B2923201E1C0F19181716BCF1280FEA
:203B8C0049DA604603F0BEFA21E0099EB246D046CDF814801DE00898079007980690DDF858
:203BAC0018E005E03831086820608888A08032E070460AE0B1F8440009E0B1F8420004E03C
:203BCC00B1F8400001E091F83E00034612E0208021E0059804900498039001E03231E2E7FF
:203BEC00039802900298009006E0019A87310DE068310BE01846EAE7009D0BE02C31D2E7EB
:203C0C00276008E0583100E048311022204601F01BF900E025700BB0BDE8F08F2806002008
:203C2C002DE9F041444C94F8E700ADF1280D00286FD1394F387B01250021242284F8E75078
:203C4C007E6884F8E6000823C4F80C6101A805F097F9002604F10C00069601ABADF8146006
:203C6C002E490796324605F087F92D4904F1300001AB324605F080F92A4904F1540001ABA2
:203C8C00324605F079F9B868014628468847DFF89C8025487B7B0078D8F80410C1F3815757
:203CAC001BB1032F03D184F8E150032F16D0022F14D0012F26D103201D4C009031464FF053
:203CCC0040521C23204602F0B3FF009531464FF400720923204602F0ABFF13E0022003F006
:203CEC00D1FF032F0CBF4FF47A7142F21071114800685434B1FBF0F1204605F071F9204607
:203D0C0005F06AF9D8F80000C00802D2304603F0B9FF0AB0BDE8F081DC950000CF5800004A
:203D2C00A15300005D57000064200020B03F005000A00C4064960000800E0020F8B504F0B7
:203D4C0037FD3F4E3D4F0446A00822D3B96A01B33D460020A8628A69086906F108032040D9
:203D6C00104340F0020088610A6918689043186001F1100090E80C0030681A1C90433060D4
:203D8C0005F1300003F024FD022105F1C80004F0C3FDB86AA10815D200F110020CCA00219C
:203DAC0022400B40002B08BF002A0BD0016985690C40F8622C434FF48041846107F1C8003D
:203DCC0004F0AAFDB86A002837D107F12404204605F022F8051C30D0F868E968884226D1C2
:203DEC00A86802F047FE17490860E0B906F1080128690A6810430860326805F1100393E833
:203E0C000300081C1043306000233361A86846F80C0C06F1100000680028FAD0204604F0B4
:203E2C00DFFCBD62F8BD086802F0E8F9F8BD07F1C8004FF4805104F06FFDF8BD4809002075
:203E4C000C1004404C2000202DE9F0430746ADF11C0D05F089F803F0B5FE4FF0000906465D
:203E6C00CDF80C9004F026FF30F0010002D00398B04202D16FF0040066E078684C4658B145
:203E8C00B0F1FF3F05D004A903F084FE30B1804659E04FF0FF3000E02046049005F060F8CB
:203EAC00049D4FF001082D1802E00A463BE004937068049905F050F800282DD0684602F06D
:203ECC0005FBD8B99DF8040005A903F0B1FB88B9BB68BDF814009DF80610029A984748B113
:203EEC00BDF814009DF80650B881029BBD73C8463B6111E0029903A803F0AEFF0498641C5F
:203F0C00B0F1FF3FD4D00028D2D005F029F82B1A02D004989842CAD2039F04F077FB06F10A
:203F2C00080547B13A4652F80C1C0029BDD1296842F80C1C2F6004F007FD24B1706805F0AB
:203F4C0007F8641EFAD1404607B0BDE8F08370472DE9F04707467D68D7F8089090460C46EF
:203F6C0005F046F8AE6A8246002E64D105F1F00004F072FA2C620024EC7750466C6205F00B
:203F8C0033F805F035F82F4E3378824623B9022003F078FE01203070504605F025F82A4A94
:203FAC001068414640F480701060384603F0D4FAA862C0B93846414602F0A8FDA878D0B95B
:203FCC00A96805F1B80004F0C7FFE8B9AC621020E8774946284601F04BFE05F009F8824629
:203FEC00307840B323E0D9F80010886B40F020008863A87810B12046BDE8F087A96805F19E
:20400C00B80004F0A9FF10B1686ABDE8F0873846414602F07BFD1020AC624946E877284688
:20402C0001F026FE04F0E4FF8246307818B1022003F010FE3470504604F0D6FF4FF0FF30BB
:20404C00BDE8F08766200020301000402DE9F04390460A68D8F800401678814600271D4692
:20406C003846ADF1140D531C242E0B6053D112F8016F5B1C4C2E0B600ED1AA68E41C24F0CC
:20408C000304241D54F8040C494602F041F92968EF600127091A2960462E1AD1E41C24F08E
:2040AC000304241D54F8040CE41C029024F00304241D54F8040C002749460390AA68ADF806
:2040CC00047001A800F00EFF2968EF600127091A2960532E1FD1E41C24F00304241D54F8ED
:2040EC00040CE861C8F80040288B0090A968EA69D9F800004346FDF745FCD9F800400027ED
:20410C0014B10119C9F80010D8F800402968EF60091A01272960662E0AD12B8B23B9E41D1D
:20412C0024F00704083403E0E41C24F00304241D1FB9E9690E700127EF60C8F8004005B005
:20414C00BDE8F0832DE9F8430746D7F80880D8F800007D68066C16F4F06F466426D1F0091C
:20416C0010D2700952D395F83C00AC6B401E844288BF041C3846214603F062F9A86B001BE7
:20418C00A86308E0A96B384603F05AF9014695F82D00A96318B9A86B002837D101E0002026
:2041AC00A86305F1840004F0CFFE2FE0F00A0ED3D8F80000002144684160A96B04F00F046A
:2041CC00202988BF2021384603F03AF91AE04FF000094C4602E0A86B401EA863A86B88B1E0
:2041EC003846012103F02CF9D8F80000446814F00F04C0F80490EED0296B686B491E296304
:20420C00401E6863EC77384601F06CFDB0090DD3AE6A5EB13846314603F09EF9A862A86AD3
:20422C00314618B93846091D02F070FCBDE8F883F0B5ADF1340DFFF7F3FC3049086828226C
:20424C00082340F00200086001A8002104F0A0FE2B4E2C490524002301AA079406F1C800F2
:20426C0004F092FE00213022082301A804F098FE0025FF271921244AADF81C5001AB09978D
:20428C0006F14C00009504F087FE2822082301A8294604F07DFE1D49079406F1FC0001AA26
:2042AC002B4604F071FE01A829463022082304F077FE0124ADF81C40099706F168001A21C0
:2042CC0001AB134A009504F067FE12492A4606F1A400134604F050FE0F4804F091FC86F884
:2042EC00A3507571F57135727572B5727561B4714FF6FF70A6F8A0000DB0F0BD00200940FE
:20430C0048090020F58800008D820000094B0000D5650000618100003D0000002DE9F041A0
:20432C0004469C4606AF0878DFF8C8803B8802284FF0FF0750D148684578007842F6021669
:20434C0000EB0520801B16D04DF2EF64001B18BFB0F102003ED1002B3AD1BCF1010F35D191
:20436C001078CA681070C968474600248F4214BF0227271C33E05BBBBCF1020F26D150785F
:20438C00157805EB002535F001061DD1C86806682046314604F030F800280CBF00208078B3
:2043AC0085420FD02046314604F026F848B931464FF6FF7004F020F8002808BF11240CD024
:2043CC0004808570002408E0802406E00D2404E00B2402E00A2400E00124FF2F07D04046DE
:2043EC00001D006818B1016809B1384688472046BDE8F0814C0D00202DE9F843044604F06F
:20440C00F7FD81462D48021992F8ED10491ECFB2002F82F8ED704BD12B4D05EB84052E781D
:20442C00698836F07F0788461AD1F10911D24FF08054D4F8B801806901464046884704F527
:20444C00DC742068406B0146404688470228F8D121E000EB8800D0F80011002088471AE008
:20446C004FF08054D4F8B801006A014640468847D4F8B801806A014640468847D4F8B80102
:20448C00006B01464046884701210D4A0D48116001688908FCD306F03F003F2801D0FFF79E
:2044AC00ABFF687800F03F003F2801D0FFF7A4FF484604F099FDBDE8F883C046800E00207A
:2044CC002820086028200840D69200002DE9F041064604F08DFD2D4D8046A91991F8ED009F
:2044EC00421C002881F8ED204AD1294C04EB8604277807F03F003F2801D0FFF7E7FF6078DA
:20450C0000F03F003F2801D0FFF7E0FF668837F07F001AD1F80911D24FF08054D4F8B80158
:20452C00406901463046884704F5DC742068406B0146304688470128F8D121E005EB8605C4
:20454C00D5F80011012088471AE04FF08054D4F8B801C069014630468847D4F8B801406A0B
:20456C00014630468847D4F8B801C06A0146304688470121074A0848116001688908FCD36B
:20458C00404604F031FDBDE8F081C046800E0020D692000028200860282008402DE9F041AE
:2045AC002C482B4908602C48FEF77EFC2E4C0025032004F1180141F80C5F401E8D60FAD132
:2045CC00241F062004F14C010A46401E22F80C5BFBD10820214F0880214A8F602149121D16
:2045EC0022F00303CF1A6762E3612362E66904F12008944618460A4601E026F8025BB142D9
:20460C00FBD8B910E82700EB810121F8045C4FF6FC761F8006EA0C0300F1E807D21A676114
:20462C0006EA0201EC39A0F8E810284601F00EF8A061D8F80000606101F0C4FB02F0C2FC6F
:20464C0002F014FE04F07CFC2846BDE8F081C046440900202132000024940000C583000094
:20466C0067200020003F0020940F00202DE9F041304C0546A0781F4616468846ADF1380DCD
:20468C00012803D0FFF7D4FD0120A070B8F1000F09D0C5F8048036B1AE6004F0A9FCE17861
:2046AC0019B104F0A1FC00203CE0491CC9B2E17004F09AFC01243FB91C494CC909A84CC048
:2046CC0006C909AF80E80600386828607868E860387A2874F8686861386900B1A861002196
:2046EC00782205F1200001F0B3F8684600212422082304F05DFC8DF8184005F138000021A9
:20470C006A4604F051FC684600212422082304F037FC0749069505F1700000226B4604F01D
:20472C002BFC28460EB0BDE8F081C046709500008F8D000048090020304B00282DE9F0477C
:20474C0055D0401E4ED0401E47D0401E0BD0401E52D1162950D11146184616220C3000F004
:20476C0073FBBDE8F087012946D1184611788768002FC17040D022490A7800241D464FF663
:20478C00FF7A8846A24237DDA0003E18385A82451ED0B078E0B105F12400EB1C1121C2685B
:2047AC00934204D0491E00F11000F8D110E08146B078410805D3308801214A4600F002FFB8
:2047CC00B078800804D3308802214A4600F0FAFE98F80020641CE4B2D4E701290CD118460D
:2047EC00801C07E0012907D11846401C02E0012902D1184611780170BDE8F0874C0D0020A2
:20480C00280600202B4AF0B538CAADF11C0D02A938C10CCA4FF0805681E80C0084684568BE
:20482C00D6F8D0112068C9688847216822488A6B10408863206840F2F271416495F83C0087
:20484C0095F83D202168C0100DEB8000806810434863684604F070FB1A4FDFF864E0D6F84C
:20486C00D0112B7FDFF854C06A7FA87F496857F823705EF82260AA695CF820300D462068A9
:20488C0001993E433343A8470F490A1F106840F010001060086840F001000860A07DFF2896
:2048AC0006D0E07DFF2803D0086840F44040086007B0F0BDE49300000DF8FFFFD0930000F2
:2048CC00C8930000B893000030100040F8B504F0BBF904F0CBF9044604F00C000C2845D006
:2048EC00E0081ED203F068FB234E376805460120014603F0EFFD31686943884211D21F4C7F
:20490C008220B0FBF7F0291A204604F069FB204604F062FB0120FDF7BDFD204603F09CFDDE
:20492C0025E0200922D21648610939BF016821F00101016841F0010102460160D2F8980066
:20494C004FF0805440F00300C2F89800D4F8B8018069014620208847D4F8B801094C806B2A
:20496C002168804701202060206800E030BF04F071F901F093FAF8BD649600008C0E00209E
:20498C008C2108402C2009402DE9F0414568876816460C4604F02CFB0346A86B324621469A
:2049AC0030B1184604F020FB4FF0FF30BDE8F081AA6329630024EC7718466C6304F014FBC9
:2049CC0004F016FB1D4E8046307820B9022003F059F901203070404604F006FB18490868A0
:2049EC0040F4007008603968886B40F4FA6088636878002818BF201C1ED1696805F1D400ED
:204A0C0004F0AAFAB8B9AC633968886B20F4FA60886304F0EDFA0746307818B1022003F0D7
:204A2C0019F93470384604F0DFFA1022696B286BEA77401A2863686BBDE8F08165200020FC
:204A4C0030100040F8B50D46EEB2290824BF27494D40274BB400DFF89CC0195900EA05025D
:204A6C000CEA020200F4E02C85EA0107BCF5E02F00EA070721EA0001C7F3006742EA0102A5
:204A8C0001D1510E14D300F4E0210F4310D002F4E027B7F5A02707D0B7F5803704BF22F448
:204AAC00003242F4A02203E022F4803242F4C0221A51114CC10D04D3C5F38052A4F1D001A0
:204ACC008A55000E10D304F093FA290E03D201220021B24002E00122B24011462368934388
:204AEC001943216004F080FAF8BDC046006000A000100840007F077FD0200240F8B504F074
:204B0C0077FA2A4C0746D4F89C0010F4602F2CD0D4F89C00400CC5B2680807D2A80803D265
:204B2C00E80828BF022502E0012500E000256E1D70B201F073FDD4F89C3005F1110101208F
:204B4C00884023EA00013846C4F89C1004F04CFA04EB8500D0F88C7057B1D4F88800314648
:204B6C0000224FF00063B84702E0384604F03CFAD4F89C0020B104F1FC00002103F0CCFED4
:204B8C0094F8A300800810D3D4F898703FB1D4F888006FF0010100224FF00043B84794F8C7
:204BAC00A30000F0FD0084F8A300F8BD480900202DE9F0410E46294990461C4606AF8C4648
:204BCC0072680878BB8851783F881278002502EB012242F62321521A29D0521E052A18D96C
:204BEC00921F0CD0263A34D1072F30D8C7F10700984298BF83B2674407F1080121E0B842AD
:204C0C0025DBC01B9842D8BF83B22380DCF804000BE0F06803F0F6FE80B2B84217DBC01B69
:204C2C009842D8BF83B22380F06839180AE0082F0DD8C7F10800984298BF83B207EB0C014B
:204C4C000F31238040461A4600F0FEF803E0072501E025800A252846BDE8F081780B0020AE
:204C6C00F8B5064604F0C4F9244A117819B104F0BBF9012440E00124147004F0B5F9214F15
:204C8C00A7F14002106EB2F868109446720805D302880A43520828BF02242BD2184D05F1CC
:204CAC000C0213685B0825D3EC6313685B08FCD272083CBF0021818006D3848041F0010162
:204CCC002037ACF868103868B1083ABF0021C180C480F10838BF0024048104F082F804F062
:204CEC0089F8286840F0400028602868002420F04000286003F0D8FF2046F8BD6E1300208D
:204D0C0000500C40641000202DE9F04114460F4604F06EF91FFA80F81F480068007808B96D
:204D2C0003F058FCE7B138684FF0FF3518B140280AD3810B08D17E681EB1310A04D0310EFF
:204D4C0002D1B9680F2908D93DB10CB1284620700820FFF751FB002418E07968BA6803E025
:204D6C004FF480700122014602F05CFF0B49012008600B4908684008FCD30A480068416822
:204D8C00022088470CB1002121700446404604F02BF92046BDE8F081EC950000A802504286
:204DAC0008800240CC010010F0B520480127F84201D001F085FE204D204F214EBD4206D26A
:204DCC0003CD0478A4003459401CA047F6E71D48002800D08047164D164FBD4202D210CD8E
:204DEC00A047FAE7F0BD03251BE0416808300A1C2A400BD11A1C2A40AB4305D004680430BF
:204E0C000C600431043BF9D1131C05D0047801300C700131013BF9D1021C2A4001D0A84333
:204E2C0004300368002BE0D17047C046FFFFFFFF0000000000000000309B0000909B00003C
:204E4C00EC9A000059C50110002A4AD05FEA000C8B071CD1830722D1102A08D370B4103A79
:204E6C0078C978C0103AFBD270BC103238D0042A2CD3082A05D30C2A24BF08C908C008C966
:204E8C0008C008C908C092072AD0920F22E00B780370491C401C521E22D08B07F7D1C30732
:204EAC0014D18307D8D0121F12D308C903801B0C4380001D121FF8D20AE008C903701B0A10
:204ECC0043701B0A83701B0AC370001D121FF4D2121D05D00B780370491C401C521EF9D19A
:204EEC00604670472DE9F843002A894607464CBF47F6FF75151C002F08BF002032D03888ED
:204F0C00002808BF002403D02A4600F0AFF90446281B26DD388828B1291B484612A202F0F6
:204F2C000DF80419B868E0B1D7F804802E1BB8F1000F0DD0404603F065FD401DB04207DC54
:204F4C00291B484609A2434601F0F8FF04192E1B122E06DBBB68291B484606A201F0EEFF55
:204F6C0004192046BDE8F8833A2000C0222573222C2000C06C696E652025643A200070471E
:204F8C00F8B50546880F3CD31E4E30681E4F20F0020040F400703060032147F8041C41F2FA
:204FAC003004BC60012139605022BA6039604FF4CA63BB603960154847F80C1C03F020FEBC
:204FCC00134FB81C0078012803D005F1380003F0BFFF00240220346002F03CFE1120FFF70F
:204FEC000BFA287C10B90E20FFF706FA3846094A04721178447221B11470C830042103F023
:20500C008BFCF8BD000004600C4104403D00000048090020482000202DE9F8432020EFF3AA
:20502C00118780F31188214CA068012103F080FF4FF001094FF0000865692168A4F81C9088
:20504C006A1A2168A4F81E80461B401A904227D387F3118840464519361A4846294603F03F
:20506C0063FFB042F7D92021EFF3118781F31188E18B012903D14046294603F055FFB0F1F1
:20508C00FF3F06D0A169801B814238BF081C411901E0A069291803F043FFA4F820902560E2
:2050AC00A4F81C8087F31188BDE8F88378010020B0B50446A768ADF1280D5FBB0C2000F019
:2050CC00C5FA071C1DD0684600212422082303F057FF002306976A466168ADF810301848EE
:2050EC00059303F019FF386070B90820ADF824000C25ADF8265009A802F034FD384602F0BF
:20510C0095FE6FF0030018E0E06878602069B860A7600AE003F07AFA0546386803F09CF90A
:20512C002069B860284603F00FFC3868616803F057FF386803F050FF00200AB0B0BDC04675
:20514C00198C00002DE9F843DFF87C900F4604464FF0FF31484603F0FFFEDFF870801D48B2
:20516C0000210AE0FF2A07D00368934202D958F822600EB1002421E0491C1FB117F82120C2
:20518C00FE2AEFD100202060012660600546A0600EE0FF290BD0636806FA01F048F82140FB
:2051AC0018430B4960601268204602F0DDFA6D1C27B107EB85021178FE29EAD1484603F005
:2051CC00C7FE2046BDE8F88308200020FC1E0020007FC767582000202DE9F04107467C6839
:2051EC00BE6804F1F00003F037F91D49306809688069000923D203F0FBFE1A4D8046287866
:20520C0020B1022002F026FD00202870404603F0EBFE32681449906B20F0200090630868DB
:20522C0020F480700860206A616A2569626A401A2062216A2B4638469847BDE8F0814FF4B9
:20524C00FA70B0FBF1F1012998BF0121F034204603F0C6FE204603F0BFFEBDE8F081C04635
:20526C006496000066200020301000409EB513460C461F4A1D4912880988824206DB13A2B0
:20528C0019460346204601F059FE9EBD194A1788814207DB03F0F0F842681946204601F06F
:2052AC004DFE9EBD002F08BF0BA2E9D00094002B48BF47F6FF73104F002101933C68029120
:2052CC000E496A46A04702989EBDC0467B6D6F64756C652325647D007B6D6F64756C652D81
:2052EC00726F70653A25787D00C046C09C9600009E9600008A0500007C960000817D0000CD
:20530C00FCB590EA01064CBF4FF000460026020243001B0E12BF42F000420020FCBDFF2BE1
:20532C0032D05FEA01245FEA41055FEA156512BF44F000440020FCBDFF2D25D05B1B0020C6
:20534C00202764085208A24240EB000028BF121B7F1E04D0002A18BF5200F4D1B84010F090
:20536C00004F04BF4000B3F1010380302CBF5B1C40007F33DCBF0020FCBDFF2B04D2400A65
:20538C0040EAC3503043FCBDFF27FF0556EA0700FCBDFEE72DE9984303F02AFE1F4CDFF83B
:2053AC007880814604F1E000007850B94446A0680146022088470746102001F0EDFC2FB3C9
:2053CC0020E000F091FE002820460FD1144909683222B2FBF1F101B9012100F130042046BC
:2053EC0003F0FEFD204603F0F7FD0FE044460022A16880F8E020022088470746102001F0EB
:20540C00CBFC1FB1A068014603208847484603F0EBFDBDE89883C046DC950000800E00205A
:20542C0064960000F0B58468204A637DA17D257DADF1140D022643F00043FF2942EA05070E
:20544C0000934568019708D0E07DFF2805D041F000410243029104260392FE2105F14000D9
:20546C004DF826106946FFF76DFEE864E86C002808BF002018D0617D0F2202F02FFDE86C7D
:20548C00217D102202F02AFDA17DFF290BD0E07DFF2808D0E86C112202F020FDE86CE17D52
:2054AC00122202F01BFD012005B0F0BD0000C0A02DE9F04107467E68BD6803F099FDB16A7C
:2054CC0039B929688969090903D203F08DFDBDE8F0810024B46203F087FDA87DFF2806D0FE
:2054EC00E87DFF2803D03046294600F0C1FB2A681049906B20F020009063086820F4807033
:20550C00086003F075FD0C4D8046287818B1022002F0A0FB2C70404603F066FD716A306A8E
:20552C003569726A401A3062316A2B4638469847BDE8F081301000406620002070B51E4DC4
:20554C00AC68064603F010F94FF47A71001B4843030C02F087FD2969401A48BF404240F6DF
:20556C00B8319B19994210D306280EDAE9688C420BD8286848B1114A091B51438A0C02EB8D
:20558C001141884288BF011C08E00D49486840080ED208687D2100F0FF004143C82905D31F
:2055AC00B1F57A6F88BF4FF47A6103E0C82101E04FF4FA61084670BD2420002040420F0030
:2055CC00AC3F00502DE9F04180461F48001F076815460E46ADF1200D47B106A8009042464A
:2055EC004FF6FF711B230120B84700E00020059028B300210091BDF81810FF270DF1120354
:20560C00024601912946029700F026FE041C11D16889ADF81000700804D302F0ADFE1B23B6
:20562C00074600E01D23404604A93A4601F090FB041C05D004A81B2103F036F800E01524AB
:20564C00204608B0BDE8F08184130020F8B5001D84B214F0030002D0241A241DA4B202F0B3
:20566C00D5FF1A4A102C014657691161C8BF9769388800221646C30BDD0319D126B984422F
:20568C000ADD3A46012617E01388C3189BB29C42138011DC174618469FB1001B80B20428D4
:2056AC00B4BF3C88385344F400443C803F1D08E080F40040002680B2C71938880028DAD121
:2056CC000027084603F040F93846F8BD900F0020F8B50446082002F05FFE071C32D0202058
:2056EC0038800026BE70A078401E12D00C3823D1142002F051FE21464CC905464CC006C9EB
:20570C0080E80600207B02F047FE28612169227B0FE0082002F040FE054694E8030085E80F
:20572C000300E078C00002F037FE6860E2786168D200FFF789FB7D600449486A096A3A4615
:20574C0001F072FB204602F0F7FFF8BD080200201CB5042002F0DCFE022818D0032816D0CE
:20576C0016480068C0F38150032814BF41F288324FF47A721248144C016854342046B2FBFB
:20578C00F1F103F02DFC204603F026FC1CBD03200C4C009000214FF040521C23204601F018
:2057AC0047FA012000214FF4007209230090204601F03EFA022002F04DFA1CBDB43F0050E3
:2057CC006496000000A00C40800E00202DE9FF410E4605461A4C7188E08A81420CDCB18887
:2057EC00814209DBF088218B884205D13089618B884208BF18271FD0052001F083FC77883A
:20580C008046F188B388ADF80270A08AADF806100C4AADF800003789ADF804301121684692
:20582C00ADF8087002F0F1F8071C05D1E57304F1F000414601F0E8FD38460090BDE8FF819E
:20584C0028060020DD8D0000002213460A46194671B510F0030F0BD0002A82BF00F8011BC8
:20586C00B2F1010210F0030FF6D1002A08BF71BD11F0FF0141EA0121042A18D341EA0141AA
:20588C00082A0FD30E46102A08D30C460D46B2F10F0312F00F0272C0103BFCD812F0080FA8
:2058AC0018BF42C012F0040F18BF40F8041B12F0020F18BF20F8021B12F0010F18BF017047
:2058CC0071BD7047F8B50E46044603F07DFB0546304602F019FB071C03D1284603F070FB97
:2058EC0026E0F87F10F0070F1BD113487968884202D079682166786002214FF0E04204F18C
:20590C00580080E80600284603F05AFB04F138004FF0FF3103F020FB04F1680797E803006F
:20592C00F8BD284603F04CFBF87F10F0070FFBD102200021F8BDC046B568000010B51C4C5D
:20594C00241FA16AADF1180DD1B1002808BF0DA305D001F10800097902F0A6FE0EA3607998
:20596C00009000220192029203920492E069052102F018FCA06A02F0DFFE0020A0626071D6
:20598C0006B010BD5273702073656E742072657472793A20256400C052737020726574725E
:2059AC0079206661696C65643A20256400C046C00C02002038B544688568E06C02F07BFDCA
:2059CC0018482968184A8B6B184088631068C0680146286888476868FEF70EFD04F16800BC
:2059EC0003F096FA04F1840003F08EFAA07818B904F1B80003F084FA607818B904F1D400AB
:205A0C0003F07EFA04F1F00003F076FA03F0F0FA0021217003F0E8FA04F1540002F0DCFC50
:205A2C0038BDC0460DF8FFFFD001001038B5054601201A4C68712879B0B902F0E7FD21786A
:205A4C00002904BF6FF00704051C15D0491EC9B2217039B902F078FF606802F0A3F900209A
:205A6C00687118E0054613E002F0D0FD05462078FF2805D16FF00604284602F065FF0BE054
:205A8C00401CC0B20128207002D1606802F0A1F9284602F059FF0024204638BD9C13002046
:205AAC0070B50646B079F4680628A4F10C042CDA3079062829DA02F0A9FD154DB27991007B
:205ACC000C3501EBC20169184968E1B102F03CFF30792071B0796071307AA071B179880038
:205AEC0000EBC1002818F1684068083002F0B4F9B179880000EBC1002D186868406803F0C8
:205B0C0027FA002070BD02F01FFF6FF0020070BDD00F002038B519491A4C00204822C1F876
:205B2C00F30F94F8E200C1F8FF2F20B3012817D0022807D003281ED151F8310C00F024F872
:205B4C000B2016E051F8315C2846FDF7C5F840F2FF50A84202D8801CA842F1D2082008E085
:205B6C0051F8310C00F062FA054800780028E7D0052084F8E400FDF7E5FC38BD39400C408F
:205B8C00EA950000800E002038B51A4CA0F5C060D4F8B810C4F8D4000029B8BF494200284D
:205BAC00B8BF4042814220DAB4F8BC00124D30214FF47F4208230090284601F039F8B4F810
:205BCC00C00004214FF4F80212230090284601F02FF8B4F8D00020214FF440620A230090ED
:205BEC00284601F025F8012000E0002084F8D80038BDC046800E002000A00C402DE9F843C2
:205C0C008146EFF31188202080F31188174D154C134F012605F11C000660A4F11400066015
:205C2C00F86A016A14208847D9F81000810C14BF000C042020603868026823210020904752
:205C4C000948066054F8180C20F4C02040F4803044F8180C2E6088F31188BDE8F883C04611
:205C6C008401001018200940800224430000244338B50C462268916B054621F0200191637C
:205C8C00E86C217D012200F0F7FFE86C217D012201F0CEFAE86C217D002202F01FF9E86CBD
:205CAC00A17D002202F01AF9A878012806D005F1B8004FF0FF3103F04FF903E021688869BF
:205CCC000009FCD2E86C217D102202F007F9A17DFF2906D0E07DFF2803D0E86C112202F0DF
:205CEC00FDF838BD2DE9F04106467568B46803F07FF9A96B31B30027AF6303F075F922689B
:205D0C001249906B20F4FA609063086820F40070086003F06DF90E4C8046207818B1022068
:205D2C0001F098FF2770404603F05EF9696B286BEF686A6B401A2863296B3B463046984786
:205D4C00BDE8F08103F050F9BDE8F08130100040652000202DE9F8430024002B16460F4659
:205D6C008046254606D5002FC3F1000302D57F42761E2D2599463846494601F083F90CA0A2
:205D8C00405CB7FBF9F7002F04F1010408F8010DF1D1A64205DD3021301B401E08F8011DDE
:205DAC00FBD10DB108F8015D4046BDE8F883C04630313233343536373839616263646566E1
:205DCC0000007047B0B5ADF1400D03F001F9044600213C220823684603F08AF811484168AA
:205DEC0006918168006804900F480068002205900E480891694603F077F8071C0DD002F0B3
:205E0C0005FC0546384600F09DFD30B1284602F09BFD204603F0D0F801E000F02BFC10B070
:205E2C00B0BDC04698910000940F0020A18A000030B5401E4FF00004ADF12C0D0AD0401E37
:205E4C0004D0401E20D1FDF77DFB1DE000F0BAFA044619E001A821462422082303F090F8C7
:205E6C0006940D4DADF8144009490794012201AB05F1780003F080F8064A23462C2105F198
:205E8C009C00009303F088F820460BB030BDC046D95F0000215B0000800E0020164880B54B
:205EAC0007683FB315498B6803EA5300C00E21D2134A106880081DD2486880081AD210683B
:205ECC00096810F0050F4FEA114101F0F00101F5E0710AD1B9420DD2190F38BF40F0010078
:205EEC00D90E38BF40F0040003E0B94202D920F00500106080BDC04628500940AC3F005007
:205F0C0000000940F8B5844640F6FF741CF8013B002210E0481B401E10F8015B7F1E01F8EF
:205F2C00015BF9D103E01CF8010B01F8010B521C5B08082AEADA5808F5D21CF8010B1CF805
:205F4C00015B05F00F07FF1CC5F30315122F45EA001508D11CF8016B300A24BF1CF8010BC8
:205F6C0060F3DF16F719AC42D4D1F8BDD0B5044602F0FAFF00F0E6FC071C08BF6FF002049A
:205F8C001FD002F043FB0146A2880F480023243030F80C6F5EB902804760A2688260237332
:205FAC00786820610024084602F0CEFC09E0964208BF6FF00204F6D05B1C062BE8D300F040
:205FCC0059FB2046D0BDC046AC0F00201648144A144908B5E4300078801E0A2807D8DFE8B5
:205FEC0000F01814100614100614100609C002F0BFFF11E010688008FCD250688008FCD2C9
:20600C000AE008688008FCD306E008688008FCD202E010688008FCD3FDF794FA08BDC04619
:20602C0034600C4038600C40800E0020134910B50A684BF2F5214843040AC2F381400128C4
:20604C0006D102F00FF801F0D5F8604304EB90540C4901F1E500007830B90948006820F0DA
:20606C007F402418640802E0002081F8E50006480460210C41600123836010BDB43F0050B6
:20608C0010200940800E00203C600C40B0B5044602F010FE30F0010008BF6FF004041ED0F9
:2060AC0002F062FF054602F0B1FA01460D480622403030F80C7F6FB1A388BB4208D14068E9
:2060CC0000680022854208BF0122A260002403E0521EEED14FF0FF34084602F035FC2046F8
:2060EC00B0BDC046900F002008B5012002F010FA01281DD00F4834210122002300F082FF0F
:20610C00002808BF002014D00B48006801F0FAFF02F02AFB0A4A93681168D060C01A074BA0
:20612C00A1EB91014343180C884228BF011C1160012008BD00A00C408000001040420F0059
:20614C002420002098B5154B1B1D18680004070C21D001F087FF104991F90720824205DD3B
:20616C0010F1800FB8BF6FF07F00C8718C88BC4210D80A68D3F8D40F801A801C1F2888BF17
:20618C001F203F1B4008C7404FF6FF70E719B84238BF071C8F8098BD5020002030100940C6
:2061AC0070B50C4620B141680122A240114201D1022070BD0D4E104B914300254160305D8C
:2061CC0043F82450FF2804D00949096851F8201001E044F020410748FEF734FC20464FF03E
:2061EC00FF3102F0A3F9284670BDC046AC1F00205C200020007FC767FC1E0020F8B50746CC
:20620C0002F0F6FE124C06462079E0B1401EC0B22071C0B904F1C800082102F07DFB97B146
:20622C00E068703002F018F9E0680A4DC0683F1A286804F1A405B7FBF0F1284602F0D0FE58
:20624C00284602F0C9FE304602F0CEFEF8BDC0464809002064960000B0B504AF3F8810467C
:20626C00002F18BF0B2024D10A78022A1DD14D686A782F7800244FF6F17507EB02277F1B8E
:20628C00012F0CD9FF1E0AD07F1E1CBF201C0A240DD116221A80C968FEF7D6FD08E0012250
:2062AC001A80C9680978017002E00020012418802046B0BD1549096821280ADC212819D053
:2062CC000C380FD00D380FD0001F0FD0C01E0FD01AE0253810D0001F10D0401E10D0401EDE
:2062EC0010D011E0086870474868704788687047C86870470869704748697047886970476D
:20630C00C8697047086A704700207047F0010020F8B50646B08815460F46FEF7A7FF0446B2
:20632C00002D02D4281B0A2806DB3368291B38460BA200F003FE0419B08978B1002D06D477
:20634C00B06802F05FFB291B401D884206DCB368291B384603A200F0F1FD04192046F8BDE8
:20636C00257000C028272573272900007FB584684568A1681E46281D02F0EEFD3246F8B108
:20638C00099800900A9E01960B9B02930C990391218A089BE068891E02F06CF9E06802F03F
:2063AC0031FBE1680D224254E1680A23461C7354E1682868721C02F0AFFC281D02F0C8FDF8
:2063CC0000907FBD38B5134D95F8E100002410B91148007860B102F00BFE95F8E3100029B7
:2063EC0006BF012185F8E310012402F0FDFD0CB1002038BD022001F045FC0E20FEF766F882
:20640C0001F02CFF01280EBF0120002085F8E20038BDC046800E0020EA95000010B502F0DF
:20642C00E7FD124C611C097829B10F490C6802F0DBFD204610BD02F0D7FD02F0BBFA0C4AAA
:20644C00002302F02DFAA26C002314001B184FF07A024FF0905044EB0104C11842EB040262
:20646C001046001C10BDC046043004404809002000093D000246F8B5084611464C682038F6
:20648C001DD0401E18D0401E18BF6FF001001AD18D6802F0ADFD0C4E0746306800690146BD
:2064AC0028688847B0F1FF3FF7D100253846A56302F09AFD2846F8BD0021084601E0012101
:2064CC00002084F82D10F8BDD0010010D0B5044602F04AFD01F076FB061C08BF6FF004008B
:2064EC001DD002F093F8B168002908BF002709D051F80C2C0023B2600F4641F80C3CFF266C
:20650C0001F8026C02F020FAA7603FB117F8080C207117F8070CA0710020D0BD0220D0BDC2
:20652C00012838B51ED1012001F0F2FF01281BD002F032F90D4D0E480122322305F1E00117
:20654C0000680A70B3FBF0F404B914463035284601F082FF2846214602F042FD284602F0F9
:20656C003BFD01E001F0E6F8002038BD800E002064960000084610B500F0005100F0040022
:20658C00084317D0012001F0C3FF0E4C01280CD0094909686C3432222046B2FBF1F102F0EC
:2065AC001FFD204602F018FD10BD044802F028FB0348046010BDC04664960000CD1C0000B3
:2065CC00001004408009002038B51248104C0168114D0C40E1430160A10908D340688009C1
:2065EC0005D328464FF40051C83002F095F914F4602F0BD0284600F19C010A6804F46024E1
:20660C00FC3014430C60002102F086F938BDC04620000E00081004404809002098B5044660
:20662C0002F0E6FC8446104890F8A310C90803D390F8A210A14213D0B0F8A0300B4F012281
:20664C0002FA04F11943A0F8A010391D0B6804F10C07BA4093430B600F680FB900210170BC
:20666C00604602F0C1FC98BD480900200810044000BF704708B5FFF7FBFFFEE738B50D4C49
:20668C000546A06820B10C48B0F1FF3F00D080470A4800688047606810B101462846884772
:2066AC00206800B18047064800688047FFF7E2FF38BDC04670130020FFFFFFFF9413002019
:2066CC0098130020DCB5044602F04EFC01F07AFA064602F0EFFA30F0010014BF002E6FF0BF
:2066EC00040017D0606858B1B0F1FF3F05D0694601F050FA30B107460BE04FF0FF3000E0CD
:20670C00002000907068009902F026FC002700B901273846DCBD70472DE9F0410646114876
:20672C00401C90F8008014460D46102001F014FE071C12D00421072202F06EF9404601F0E6
:20674C0057FD38727E72BD72FC6001F015FE044A394600F0E5FDBDE8F0810420BDE8F081C1
